{
    "contractName": "CreationToken",
    "abi": [
        {
            "anonymous": false,
            "inputs": [
                {
                    "indexed": true,
                    "internalType": "address",
                    "name": "account",
                    "type": "address"
                },
                {
                    "indexed": true,
                    "internalType": "address",
                    "name": "operator",
                    "type": "address"
                },
                {
                    "indexed": false,
                    "internalType": "bool",
                    "name": "approved",
                    "type": "bool"
                }
            ],
            "name": "ApprovalForAll",
            "type": "event"
        },
        {
            "anonymous": false,
            "inputs": [
                {
                    "indexed": false,
                    "internalType": "address",
                    "name": "account",
                    "type": "address"
                }
            ],
            "name": "Paused",
            "type": "event"
        },
        {
            "anonymous": false,
            "inputs": [
                {
                    "indexed": true,
                    "internalType": "bytes32",
                    "name": "role",
                    "type": "bytes32"
                },
                {
                    "indexed": true,
                    "internalType": "bytes32",
                    "name": "previousAdminRole",
                    "type": "bytes32"
                },
                {
                    "indexed": true,
                    "internalType": "bytes32",
                    "name": "newAdminRole",
                    "type": "bytes32"
                }
            ],
            "name": "RoleAdminChanged",
            "type": "event"
        },
        {
            "anonymous": false,
            "inputs": [
                {
                    "indexed": true,
                    "internalType": "bytes32",
                    "name": "role",
                    "type": "bytes32"
                },
                {
                    "indexed": true,
                    "internalType": "address",
                    "name": "account",
                    "type": "address"
                },
                {
                    "indexed": true,
                    "internalType": "address",
                    "name": "sender",
                    "type": "address"
                }
            ],
            "name": "RoleGranted",
            "type": "event"
        },
        {
            "anonymous": false,
            "inputs": [
                {
                    "indexed": true,
                    "internalType": "bytes32",
                    "name": "role",
                    "type": "bytes32"
                },
                {
                    "indexed": true,
                    "internalType": "address",
                    "name": "account",
                    "type": "address"
                },
                {
                    "indexed": true,
                    "internalType": "address",
                    "name": "sender",
                    "type": "address"
                }
            ],
            "name": "RoleRevoked",
            "type": "event"
        },
        {
            "anonymous": false,
            "inputs": [
                {
                    "indexed": true,
                    "internalType": "address",
                    "name": "from",
                    "type": "address"
                },
                {
                    "indexed": true,
                    "internalType": "address",
                    "name": "to",
                    "type": "address"
                },
                {
                    "indexed": false,
                    "internalType": "uint256",
                    "name": "value",
                    "type": "uint256"
                }
            ],
            "name": "Transfer",
            "type": "event"
        },
        {
            "anonymous": false,
            "inputs": [
                {
                    "indexed": true,
                    "internalType": "address",
                    "name": "operator",
                    "type": "address"
                },
                {
                    "indexed": true,
                    "internalType": "address",
                    "name": "from",
                    "type": "address"
                },
                {
                    "indexed": true,
                    "internalType": "address",
                    "name": "to",
                    "type": "address"
                },
                {
                    "indexed": false,
                    "internalType": "uint256[]",
                    "name": "ids",
                    "type": "uint256[]"
                },
                {
                    "indexed": false,
                    "internalType": "uint256[]",
                    "name": "values",
                    "type": "uint256[]"
                }
            ],
            "name": "TransferBatch",
            "type": "event"
        },
        {
            "anonymous": false,
            "inputs": [
                {
                    "indexed": true,
                    "internalType": "address",
                    "name": "operator",
                    "type": "address"
                },
                {
                    "indexed": true,
                    "internalType": "address",
                    "name": "from",
                    "type": "address"
                },
                {
                    "indexed": true,
                    "internalType": "address",
                    "name": "to",
                    "type": "address"
                },
                {
                    "indexed": false,
                    "internalType": "uint256",
                    "name": "id",
                    "type": "uint256"
                },
                {
                    "indexed": false,
                    "internalType": "uint256",
                    "name": "value",
                    "type": "uint256"
                }
            ],
            "name": "TransferSingle",
            "type": "event"
        },
        {
            "anonymous": false,
            "inputs": [
                {
                    "indexed": false,
                    "internalType": "string",
                    "name": "value",
                    "type": "string"
                },
                {
                    "indexed": true,
                    "internalType": "uint256",
                    "name": "id",
                    "type": "uint256"
                }
            ],
            "name": "URI",
            "type": "event"
        },
        {
            "anonymous": false,
            "inputs": [
                {
                    "indexed": false,
                    "internalType": "address",
                    "name": "account",
                    "type": "address"
                }
            ],
            "name": "Unpaused",
            "type": "event"
        },
        {
            "inputs": [],
            "name": "DEFAULT_ADMIN_ROLE",
            "outputs": [
                {
                    "internalType": "bytes32",
                    "name": "",
                    "type": "bytes32"
                }
            ],
            "stateMutability": "view",
            "type": "function"
        },
        {
            "inputs": [],
            "name": "LetBe",
            "outputs": [
                {
                    "internalType": "uint256",
                    "name": "",
                    "type": "uint256"
                }
            ],
            "stateMutability": "view",
            "type": "function"
        },
        {
            "inputs": [],
            "name": "MINTER_ROLE",
            "outputs": [
                {
                    "internalType": "bytes32",
                    "name": "",
                    "type": "bytes32"
                }
            ],
            "stateMutability": "view",
            "type": "function"
        },
        {
            "inputs": [],
            "name": "PAUSER_ROLE",
            "outputs": [
                {
                    "internalType": "bytes32",
                    "name": "",
                    "type": "bytes32"
                }
            ],
            "stateMutability": "view",
            "type": "function"
        },
        {
            "inputs": [],
            "name": "SNAPSHOTTER_ROLE",
            "outputs": [
                {
                    "internalType": "bytes32",
                    "name": "",
                    "type": "bytes32"
                }
            ],
            "stateMutability": "view",
            "type": "function"
        },
        {
            "inputs": [],
            "name": "_SpeciesSold",
            "outputs": [
                {
                    "internalType": "uint256",
                    "name": "",
                    "type": "uint256"
                }
            ],
            "stateMutability": "view",
            "type": "function"
        },
        {
            "inputs": [
                {
                    "internalType": "address",
                    "name": "",
                    "type": "address"
                },
                {
                    "internalType": "uint256",
                    "name": "",
                    "type": "uint256"
                }
            ],
            "name": "_holderSpecies",
            "outputs": [
                {
                    "internalType": "uint256",
                    "name": "",
                    "type": "uint256"
                }
            ],
            "stateMutability": "view",
            "type": "function"
        },
        {
            "inputs": [],
            "name": "_reward",
            "outputs": [
                {
                    "internalType": "uint256",
                    "name": "",
                    "type": "uint256"
                }
            ],
            "stateMutability": "view",
            "type": "function"
        },
        {
            "inputs": [
                {
                    "internalType": "uint256",
                    "name": "",
                    "type": "uint256"
                }
            ],
            "name": "_rewardee",
            "outputs": [
                {
                    "internalType": "address",
                    "name": "",
                    "type": "address"
                }
            ],
            "stateMutability": "view",
            "type": "function"
        },
        {
            "inputs": [
                {
                    "internalType": "uint256",
                    "name": "",
                    "type": "uint256"
                },
                {
                    "internalType": "uint256",
                    "name": "",
                    "type": "uint256"
                }
            ],
            "name": "_speciesHolders",
            "outputs": [
                {
                    "internalType": "address",
                    "name": "",
                    "type": "address"
                }
            ],
            "stateMutability": "view",
            "type": "function"
        },
        {
            "inputs": [
                {
                    "internalType": "address",
                    "name": "account",
                    "type": "address"
                },
                {
                    "internalType": "uint256",
                    "name": "id",
                    "type": "uint256"
                }
            ],
            "name": "balanceOf",
            "outputs": [
                {
                    "internalType": "uint256",
                    "name": "",
                    "type": "uint256"
                }
            ],
            "stateMutability": "view",
            "type": "function"
        },
        {
            "inputs": [
                {
                    "internalType": "address",
                    "name": "account",
                    "type": "address"
                }
            ],
            "name": "balanceOf",
            "outputs": [
                {
                    "internalType": "uint256",
                    "name": "",
                    "type": "uint256"
                }
            ],
            "stateMutability": "view",
            "type": "function"
        },
        {
            "inputs": [
                {
                    "internalType": "address",
                    "name": "account",
                    "type": "address"
                }
            ],
            "name": "balanceOfAtSnapshot",
            "outputs": [
                {
                    "internalType": "uint256",
                    "name": "",
                    "type": "uint256"
                }
            ],
            "stateMutability": "view",
            "type": "function"
        },
        {
            "inputs": [
                {
                    "internalType": "address[]",
                    "name": "accounts",
                    "type": "address[]"
                },
                {
                    "internalType": "uint256[]",
                    "name": "ids",
                    "type": "uint256[]"
                }
            ],
            "name": "balanceOfBatch",
            "outputs": [
                {
                    "internalType": "uint256[]",
                    "name": "",
                    "type": "uint256[]"
                }
            ],
            "stateMutability": "view",
            "type": "function"
        },
        {
            "inputs": [
                {
                    "internalType": "uint256",
                    "name": "amount",
                    "type": "uint256"
                }
            ],
            "name": "burn",
            "outputs": [],
            "stateMutability": "nonpayable",
            "type": "function"
        },
        {
            "inputs": [
                {
                    "internalType": "address",
                    "name": "account",
                    "type": "address"
                },
                {
                    "internalType": "uint256",
                    "name": "id",
                    "type": "uint256"
                },
                {
                    "internalType": "uint256",
                    "name": "value",
                    "type": "uint256"
                }
            ],
            "name": "burn",
            "outputs": [],
            "stateMutability": "nonpayable",
            "type": "function"
        },
        {
            "inputs": [
                {
                    "internalType": "address",
                    "name": "account",
                    "type": "address"
                },
                {
                    "internalType": "uint256[]",
                    "name": "ids",
                    "type": "uint256[]"
                },
                {
                    "internalType": "uint256[]",
                    "name": "values",
                    "type": "uint256[]"
                }
            ],
            "name": "burnBatch",
            "outputs": [],
            "stateMutability": "nonpayable",
            "type": "function"
        },
        {
            "inputs": [
                {
                    "internalType": "address",
                    "name": "spender",
                    "type": "address"
                },
                {
                    "internalType": "address",
                    "name": "to",
                    "type": "address"
                },
                {
                    "internalType": "uint256",
                    "name": "specieId",
                    "type": "uint256"
                }
            ],
            "name": "buySpecie",
            "outputs": [],
            "stateMutability": "nonpayable",
            "type": "function"
        },
        {
            "inputs": [
                {
                    "internalType": "uint256",
                    "name": "specieId",
                    "type": "uint256"
                }
            ],
            "name": "buySpecie",
            "outputs": [],
            "stateMutability": "nonpayable",
            "type": "function"
        },
        {
            "inputs": [],
            "name": "claimHolderReward",
            "outputs": [],
            "stateMutability": "nonpayable",
            "type": "function"
        },
        {
            "inputs": [
                {
                    "internalType": "bytes32",
                    "name": "role",
                    "type": "bytes32"
                }
            ],
            "name": "getRoleAdmin",
            "outputs": [
                {
                    "internalType": "bytes32",
                    "name": "",
                    "type": "bytes32"
                }
            ],
            "stateMutability": "view",
            "type": "function"
        },
        {
            "inputs": [
                {
                    "internalType": "bytes32",
                    "name": "role",
                    "type": "bytes32"
                },
                {
                    "internalType": "uint256",
                    "name": "index",
                    "type": "uint256"
                }
            ],
            "name": "getRoleMember",
            "outputs": [
                {
                    "internalType": "address",
                    "name": "",
                    "type": "address"
                }
            ],
            "stateMutability": "view",
            "type": "function"
        },
        {
            "inputs": [
                {
                    "internalType": "bytes32",
                    "name": "role",
                    "type": "bytes32"
                }
            ],
            "name": "getRoleMemberCount",
            "outputs": [
                {
                    "internalType": "uint256",
                    "name": "",
                    "type": "uint256"
                }
            ],
            "stateMutability": "view",
            "type": "function"
        },
        {
            "inputs": [
                {
                    "internalType": "bytes32",
                    "name": "role",
                    "type": "bytes32"
                },
                {
                    "internalType": "address",
                    "name": "account",
                    "type": "address"
                }
            ],
            "name": "grantRole",
            "outputs": [],
            "stateMutability": "nonpayable",
            "type": "function"
        },
        {
            "inputs": [
                {
                    "internalType": "bytes32",
                    "name": "role",
                    "type": "bytes32"
                },
                {
                    "internalType": "address",
                    "name": "account",
                    "type": "address"
                }
            ],
            "name": "hasRole",
            "outputs": [
                {
                    "internalType": "bool",
                    "name": "",
                    "type": "bool"
                }
            ],
            "stateMutability": "view",
            "type": "function"
        },
        {
            "inputs": [
                {
                    "internalType": "address",
                    "name": "holder",
                    "type": "address"
                }
            ],
            "name": "holderSpecies",
            "outputs": [
                {
                    "internalType": "uint256[]",
                    "name": "",
                    "type": "uint256[]"
                }
            ],
            "stateMutability": "view",
            "type": "function"
        },
        {
            "inputs": [],
            "name": "initialize",
            "outputs": [],
            "stateMutability": "nonpayable",
            "type": "function"
        },
        {
            "inputs": [
                {
                    "internalType": "string",
                    "name": "uri",
                    "type": "string"
                }
            ],
            "name": "initialize",
            "outputs": [],
            "stateMutability": "nonpayable",
            "type": "function"
        },
        {
            "inputs": [
                {
                    "internalType": "address",
                    "name": "account",
                    "type": "address"
                },
                {
                    "internalType": "address",
                    "name": "operator",
                    "type": "address"
                }
            ],
            "name": "isApprovedForAll",
            "outputs": [
                {
                    "internalType": "bool",
                    "name": "",
                    "type": "bool"
                }
            ],
            "stateMutability": "view",
            "type": "function"
        },
        {
            "inputs": [
                {
                    "internalType": "uint256",
                    "name": "specieId",
                    "type": "uint256"
                }
            ],
            "name": "maxSpecimen",
            "outputs": [
                {
                    "internalType": "uint256",
                    "name": "",
                    "type": "uint256"
                }
            ],
            "stateMutability": "pure",
            "type": "function"
        },
        {
            "inputs": [
                {
                    "internalType": "address",
                    "name": "to",
                    "type": "address"
                },
                {
                    "internalType": "uint256",
                    "name": "amount",
                    "type": "uint256"
                }
            ],
            "name": "mint",
            "outputs": [],
            "stateMutability": "nonpayable",
            "type": "function"
        },
        {
            "inputs": [
                {
                    "internalType": "address",
                    "name": "to",
                    "type": "address"
                },
                {
                    "internalType": "uint256",
                    "name": "id",
                    "type": "uint256"
                },
                {
                    "internalType": "uint256",
                    "name": "amount",
                    "type": "uint256"
                },
                {
                    "internalType": "bytes",
                    "name": "data",
                    "type": "bytes"
                }
            ],
            "name": "mint",
            "outputs": [],
            "stateMutability": "nonpayable",
            "type": "function"
        },
        {
            "inputs": [
                {
                    "internalType": "address",
                    "name": "to",
                    "type": "address"
                },
                {
                    "internalType": "uint256[]",
                    "name": "ids",
                    "type": "uint256[]"
                },
                {
                    "internalType": "uint256[]",
                    "name": "amounts",
                    "type": "uint256[]"
                },
                {
                    "internalType": "bytes",
                    "name": "data",
                    "type": "bytes"
                }
            ],
            "name": "mintBatch",
            "outputs": [],
            "stateMutability": "nonpayable",
            "type": "function"
        },
        {
            "inputs": [
                {
                    "internalType": "uint256",
                    "name": "chosenSpecie",
                    "type": "uint256"
                },
                {
                    "internalType": "address",
                    "name": "to",
                    "type": "address"
                }
            ],
            "name": "mintSpecie",
            "outputs": [],
            "stateMutability": "nonpayable",
            "type": "function"
        },
        {
            "inputs": [],
            "name": "pause",
            "outputs": [],
            "stateMutability": "nonpayable",
            "type": "function"
        },
        {
            "inputs": [],
            "name": "paused",
            "outputs": [
                {
                    "internalType": "bool",
                    "name": "",
                    "type": "bool"
                }
            ],
            "stateMutability": "view",
            "type": "function"
        },
        {
            "inputs": [
                {
                    "internalType": "uint256",
                    "name": "tAmount",
                    "type": "uint256"
                },
                {
                    "internalType": "bool",
                    "name": "deductTransferFee",
                    "type": "bool"
                }
            ],
            "name": "reflectionFromToken",
            "outputs": [
                {
                    "internalType": "uint256",
                    "name": "",
                    "type": "uint256"
                }
            ],
            "stateMutability": "view",
            "type": "function"
        },
        {
            "inputs": [
                {
                    "internalType": "bytes32",
                    "name": "role",
                    "type": "bytes32"
                },
                {
                    "internalType": "address",
                    "name": "account",
                    "type": "address"
                }
            ],
            "name": "renounceRole",
            "outputs": [],
            "stateMutability": "nonpayable",
            "type": "function"
        },
        {
            "inputs": [
                {
                    "internalType": "bytes32",
                    "name": "role",
                    "type": "bytes32"
                },
                {
                    "internalType": "address",
                    "name": "account",
                    "type": "address"
                }
            ],
            "name": "revokeRole",
            "outputs": [],
            "stateMutability": "nonpayable",
            "type": "function"
        },
        {
            "inputs": [
                {
                    "internalType": "uint256",
                    "name": "amount",
                    "type": "uint256"
                }
            ],
            "name": "rewardHolders",
            "outputs": [],
            "stateMutability": "nonpayable",
            "type": "function"
        },
        {
            "inputs": [
                {
                    "internalType": "address",
                    "name": "from",
                    "type": "address"
                },
                {
                    "internalType": "address",
                    "name": "to",
                    "type": "address"
                },
                {
                    "internalType": "uint256[]",
                    "name": "ids",
                    "type": "uint256[]"
                },
                {
                    "internalType": "uint256[]",
                    "name": "amounts",
                    "type": "uint256[]"
                },
                {
                    "internalType": "bytes",
                    "name": "data",
                    "type": "bytes"
                }
            ],
            "name": "safeBatchTransferFrom",
            "outputs": [],
            "stateMutability": "nonpayable",
            "type": "function"
        },
        {
            "inputs": [
                {
                    "internalType": "address",
                    "name": "from",
                    "type": "address"
                },
                {
                    "internalType": "address",
                    "name": "to",
                    "type": "address"
                },
                {
                    "internalType": "uint256",
                    "name": "id",
                    "type": "uint256"
                },
                {
                    "internalType": "uint256",
                    "name": "amount",
                    "type": "uint256"
                },
                {
                    "internalType": "bytes",
                    "name": "data",
                    "type": "bytes"
                }
            ],
            "name": "safeTransferFrom",
            "outputs": [],
            "stateMutability": "nonpayable",
            "type": "function"
        },
        {
            "inputs": [
                {
                    "internalType": "address",
                    "name": "operator",
                    "type": "address"
                },
                {
                    "internalType": "bool",
                    "name": "approved",
                    "type": "bool"
                }
            ],
            "name": "setApprovalForAll",
            "outputs": [],
            "stateMutability": "nonpayable",
            "type": "function"
        },
        {
            "inputs": [
                {
                    "internalType": "string",
                    "name": "newuri",
                    "type": "string"
                }
            ],
            "name": "setURI",
            "outputs": [],
            "stateMutability": "nonpayable",
            "type": "function"
        },
        {
            "inputs": [
                {
                    "internalType": "uint256",
                    "name": "specieId",
                    "type": "uint256"
                }
            ],
            "name": "specieHolders",
            "outputs": [
                {
                    "internalType": "address[]",
                    "name": "",
                    "type": "address[]"
                }
            ],
            "stateMutability": "view",
            "type": "function"
        },
        {
            "inputs": [],
            "name": "speciePrice",
            "outputs": [
                {
                    "internalType": "uint256",
                    "name": "",
                    "type": "uint256"
                }
            ],
            "stateMutability": "view",
            "type": "function"
        },
        {
            "inputs": [
                {
                    "internalType": "bytes4",
                    "name": "interfaceId",
                    "type": "bytes4"
                }
            ],
            "name": "supportsInterface",
            "outputs": [
                {
                    "internalType": "bool",
                    "name": "",
                    "type": "bool"
                }
            ],
            "stateMutability": "view",
            "type": "function"
        },
        {
            "inputs": [],
            "name": "takeSnapshot",
            "outputs": [],
            "stateMutability": "nonpayable",
            "type": "function"
        },
        {
            "inputs": [
                {
                    "internalType": "uint256",
                    "name": "rAmount",
                    "type": "uint256"
                }
            ],
            "name": "tokenFromReflection",
            "outputs": [
                {
                    "internalType": "uint256",
                    "name": "",
                    "type": "uint256"
                }
            ],
            "stateMutability": "view",
            "type": "function"
        },
        {
            "inputs": [],
            "name": "totalFees",
            "outputs": [
                {
                    "internalType": "uint256",
                    "name": "",
                    "type": "uint256"
                }
            ],
            "stateMutability": "view",
            "type": "function"
        },
        {
            "inputs": [],
            "name": "totalSupply",
            "outputs": [
                {
                    "internalType": "uint256",
                    "name": "",
                    "type": "uint256"
                }
            ],
            "stateMutability": "view",
            "type": "function"
        },
        {
            "inputs": [],
            "name": "totalSupplyAtSnapShot",
            "outputs": [
                {
                    "internalType": "uint256",
                    "name": "",
                    "type": "uint256"
                }
            ],
            "stateMutability": "view",
            "type": "function"
        },
        {
            "inputs": [
                {
                    "internalType": "address",
                    "name": "recipient",
                    "type": "address"
                },
                {
                    "internalType": "uint256",
                    "name": "amount",
                    "type": "uint256"
                }
            ],
            "name": "transfer",
            "outputs": [
                {
                    "internalType": "bool",
                    "name": "",
                    "type": "bool"
                }
            ],
            "stateMutability": "nonpayable",
            "type": "function"
        },
        {
            "inputs": [
                {
                    "internalType": "address",
                    "name": "sender",
                    "type": "address"
                },
                {
                    "internalType": "address",
                    "name": "recipient",
                    "type": "address"
                },
                {
                    "internalType": "uint256",
                    "name": "amount",
                    "type": "uint256"
                }
            ],
            "name": "transferFrom",
            "outputs": [
                {
                    "internalType": "bool",
                    "name": "",
                    "type": "bool"
                }
            ],
            "stateMutability": "nonpayable",
            "type": "function"
        },
        {
            "inputs": [],
            "name": "unpause",
            "outputs": [],
            "stateMutability": "nonpayable",
            "type": "function"
        },
        {
            "inputs": [
                {
                    "internalType": "uint256",
                    "name": "",
                    "type": "uint256"
                }
            ],
            "name": "uri",
            "outputs": [
                {
                    "internalType": "string",
                    "name": "",
                    "type": "string"
                }
            ],
            "stateMutability": "view",
            "type": "function"
        }
    ],
    "bytecode": "60806040526101ca805460ff1916905534801561001b57600080fd5b50615804806200002c6000396000f3fe608060405234801561001057600080fd5b50600436106103775760003560e01c8063731133e9116101d3578063a9059cbb11610104578063d7e9ee56116100a2578063e985e9c51161007c578063e985e9c514610725578063f242432a14610761578063f5298aca14610774578063f62d18881461078757600080fd5b8063d7e9ee56146106ea578063e63ab1e9146106fd578063e6bd7ed11461071257600080fd5b8063ca15c873116100de578063ca15c873146106af578063cb2db437146106c2578063d5391393146106c2578063d547741f146106d757600080fd5b8063a9059cbb14610681578063b3d3d37e14610694578063c68996921461069c57600080fd5b80638e5fdf17116101715780639b60884f1161014b5780639b60884f146106515780639f4f7fec1461065b578063a217fddf1461058c578063a22cb4651461066e57600080fd5b80638e5fdf17146106185780639010d07c1461062b57806391d148541461063e57600080fd5b80637de4adfb116101ad5780637de4adfb146105ed5780637df01e76146106005780638129fc1c146106085780638456cb591461061057600080fd5b8063731133e9146105a75780637346e50a146105ba5780637a098fb2146105da57600080fd5b80632eb2c2d6116102ad5780634549b0391161024b578063657004811161022557806365700481146105715780636b20c45414610579578063701f134c1461058c57806370a082311461059457600080fd5b80634549b039146105325780634e1273f4146105455780635c975abb1461056557600080fd5b806336568abe1161028757806336568abe146104f15780633f4ba83a1461050457806340c10f191461050c57806342966c681461051f57600080fd5b80632eb2c2d6146104b85780632f2ff15d146104cb578063307cf719146104de57600080fd5b80631be0717f1161031a57806323b872dd116102f457806323b872dd1461045b578063248a9ca31461046e5780632b7f5602146104915780632d838119146104a557600080fd5b80631be0717f146104365780631f4cb149146104405780631f7fdffa1461044857600080fd5b806308bbcc591161035657806308bbcc59146103da5780630e89341c1461040557806313114a9d1461042557806318160ddd1461042e57600080fd5b8062fdd58e1461037c57806301ffc9a7146103a257806302fe5305146103c5575b600080fd5b61038f61038a366004614cc1565b61079a565b6040519081526020015b60405180910390f35b6103b56103b0366004614eb2565b6107c1565b6040519015158152602001610399565b6103d86103d3366004614eea565b6107cc565b005b6103ed6103e8366004614e57565b610808565b6040516001600160a01b039091168152602001610399565b610418610413366004614e57565b610833565b604051610399919061515d565b6101c65461038f565b61038f6108c7565b61038f6101ce5481565b61038f6108d8565b6103d8610456366004614b82565b6108e6565b6103b5610469366004614ad2565b610a11565b61038f61047c366004614e57565b60009081526065602052604090206001015490565b61038f61049f366004614e57565b50600190565b61038f6104b3366004614e57565b610a61565b6103d86104c6366004614a1c565b610adf565b6103d86104d9366004614e6f565b610c0e565b61038f6104ec366004614cc1565b610c35565b6103d86104ff366004614e6f565b610c67565b6103d8610c89565b6103d861051a366004614cc1565b610d1d565b6103d861052d366004614e57565b610d5f565b61038f610540366004614f2f565b610d8f565b610558610553366004614d8d565b610e1b565b604051610399919061511c565b61012d5460ff166103b5565b6103d8610f7c565b6103d8610587366004614c28565b61110c565b61038f600081565b61038f6105a23660046149d0565b61114f565b6103d86105b5366004614d1c565b61115a565b6105cd6105c8366004614e57565b611180565b60405161039991906150cf565b6103d86105e8366004614e6f565b6111ec565b6103ed6105fb366004614e91565b611260565b61038f611299565b6103d86112ca565b6103d8611398565b61038f6106263660046149d0565b61142a565b6103ed610639366004614e91565b611465565b6103b561064c366004614e6f565b61147d565b61038f6101cd5481565b6105586106693660046149d0565b6114a8565b6103d861067c366004614c98565b611514565b6103b561068f366004614cc1565b6115ec565b6103d8611602565b6103d86106aa366004614ad2565b611701565b61038f6106bd366004614e57565b611763565b61038f6000805160206157af83398151915281565b6103d86106e5366004614e6f565b61177a565b6103d86106f8366004614e57565b611784565b61038f60008051602061578f83398151915281565b6103d8610720366004614e57565b6117e4565b6103b56107333660046149ea565b6001600160a01b03918216600090815260ca6020908152604080832093909416825291909152205460ff1690565b6103d861076f366004614b0d565b61181e565b6103d8610782366004614cea565b61187f565b6103d8610795366004614eea565b6118c2565b6000816107b1576107aa8361114f565b90506107bb565b6107aa8383611937565b92915050565b60006107bb826119cb565b6107d760003361147d565b6107fc5760405162461bcd60e51b81526004016107f3906153b1565b60405180910390fd5b610805816119d6565b50565b6101cf818154811061081957600080fd5b6000918252602090912001546001600160a01b0316905081565b606060cb8054610842906155ff565b80601f016020809104026020016040519081016040528092919081815260200182805461086e906155ff565b80156108bb5780601f10610890576101008083540402835291602001916108bb565b820191906000526020600020905b81548152906001019060200180831161089e57829003601f168201915b50505050509050919050565b60006108d36101c45490565b905090565b60006108d36101cd546119e9565b60005b8581101561096557600087878381811061091357634e487b7160e01b600052603260045260246000fd5b905060200201351415610955576109508886868481811061094457634e487b7160e01b600052603260045260246000fd5b90506020020135610d1d565b610965565b61095e81615666565b90506108e9565b50610a088787878080602002602001604051908101604052809392919081815260200183836020028082843760009201919091525050604080516020808b0282810182019093528a82529093508a92508991829185019084908082843760009201919091525050604080516020601f8a01819004810282018101909252888152925088915087908190840183828082843760009201919091525061268792505050565b50505050505050565b6000610a1e8484846126c7565b6001600160a01b038416331480610a3a5750610a3a8433610733565b610a565760405162461bcd60e51b81526004016107f3906152ce565b5060015b9392505050565b60006101c554821115610ac95760405162461bcd60e51b815260206004820152602a60248201527f416d6f756e74206d757374206265206c657373207468616e20746f74616c207260448201526965666c656374696f6e7360b01b60648201526084016107f3565b6000610ad36128e7565b9050610a5a8382612906565b60005b85811015610b60576000878783818110610b0c57634e487b7160e01b600052603260045260246000fd5b905060200201351415610b5057610b4a8989878785818110610b3e57634e487b7160e01b600052603260045260246000fd5b90506020020135610a11565b50610b60565b610b5981615666565b9050610ae2565b50610c04888888888080602002602001604051908101604052809392919081815260200183836020028082843760009201919091525050604080516020808c0282810182019093528b82529093508b92508a91829185019084908082843760009201919091525050604080516020601f8b01819004810282018101909252898152925089915088908190840183828082843760009201919091525061291292505050565b5050505050505050565b610c188282612b56565b6000828152609760205260409020610c309082612b7c565b505050565b6101cb6020528160005260406000208181548110610c5257600080fd5b90600052602060002001600091509150505481565b610c718282612b91565b6000828152609760205260409020610c309082612c0b565b610ca160008051602061578f8339815191523361147d565b610d135760405162461bcd60e51b815260206004820152603b60248201527f455243313135355072657365744d696e7465725061757365723a206d7573742060448201527f686176652070617573657220726f6c6520746f20756e7061757365000000000060648201526084016107f3565b610d1b612c20565b565b610d356000805160206157af8339815191523361147d565b610d515760405162461bcd60e51b81526004016107f3906153b1565b610d5b8282612cb5565b5050565b610d6a60003361147d565b610d865760405162461bcd60e51b81526004016107f3906153b1565b61080581612dcf565b60006101c454831115610de45760405162461bcd60e51b815260206004820152601f60248201527f416d6f756e74206d757374206265206c657373207468616e20737570706c790060448201526064016107f3565b81610e02576000610df484612e49565b509294506107bb9350505050565b6000610e0d84612e49565b509194506107bb9350505050565b60608151835114610e805760405162461bcd60e51b815260206004820152602960248201527f455243313135353a206163636f756e747320616e6420696473206c656e677468604482015268040dad2e6dac2e8c6d60bb1b60648201526084016107f3565b600083516001600160401b03811115610ea957634e487b7160e01b600052604160045260246000fd5b604051908082528060200260200182016040528015610ed2578160200160208202803683370190505b50905060005b8451811015610f7457610f39858281518110610f0457634e487b7160e01b600052603260045260246000fd5b6020026020010151858381518110610f2c57634e487b7160e01b600052603260045260246000fd5b602002602001015161079a565b828281518110610f5957634e487b7160e01b600052603260045260246000fd5b6020908102919091010152610f6d81615666565b9050610ed8565b509392505050565b3360009081526101d0602052604090205460ff1615610fe95760405162461bcd60e51b8152602060048201526024808201527f436f6d6520616761696e206e6578742074696d652066656c6c6f7720686f6c646044820152636572202160e01b60648201526084016107f3565b610ffd6064610ff73361114f565b90612e95565b61100b6055610ff73361142a565b11156110785760405162461bcd60e51b815260206004820152603660248201527f506c656173652062652061207472756520686f6c6465722c20736f20746f206260448201527565207265776172646564206e6577742074696d65202160501b60648201526084016107f3565b60006110a16110856108c7565b61109b6110913361114f565b6101ce5490612e95565b90612ea1565b90506110ad3382610d1d565b506101cf805460018082019092557fb3c3535b893c543659d6222f95c1d595efa197ef5bb8ab413f33658de985b0910180546001600160a01b0319163390811790915560009081526101d060205260409020805460ff19169091179055565b6001600160a01b03831633148061112857506111288333610733565b6111445760405162461bcd60e51b81526004016107f3906151fc565b610c30838383612eb6565b60006107bb82613070565b8261116e576111698483610d1d565b61117a565b61116984848484613093565b50505050565b60008181526101cc60209081526040918290208054835181840281018401909452808452606093928301828280156108bb57602002820191906000526020600020905b81546001600160a01b031681526001909101906020018083116111c35750505050509050919050565b6112088183600160405180602001604052806000815250613093565b60008281526101cc602090815260408083208054600181810183559185528385200180546001600160a01b039096166001600160a01b0319909616861790559383526101cb8252822080549384018155825290200155565b6101cc602052816000526040600020818154811061127d57600080fd5b6000918252602090912001546001600160a01b03169150829050565b60008060006112ab6101c95480151591565b91509150816112c1576112bc6108c7565b6112c3565b805b9250505090565b600054610100900460ff16806112e3575060005460ff16155b6112ff5760405162461bcd60e51b81526004016107f390615320565b600054610100900460ff16158015611321576000805461ffff19166101011790555b60016101cd5560408051808201909152601a81527f68747470733a2f2f6578616d706c652e636f6d2f746f6b656e2f0000000000006020820152611364906118c2565b61136c6130d3565b6113846000805160206157af833981519152336131bc565b8015610805576000805461ff001916905550565b6113b060008051602061578f8339815191523361147d565b6114225760405162461bcd60e51b815260206004820152603960248201527f455243313135355072657365744d696e7465725061757365723a206d7573742060448201527f686176652070617573657220726f6c6520746f2070617573650000000000000060648201526084016107f3565b610d1b6131c6565b6001600160a01b03811660009081526101c76020526040812054801515908161145b576114568461114f565b61145d565b805b949350505050565b6000828152609760205260408120610a5a9083613243565b60009182526065602090815260408084206001600160a01b0393909316845291905290205460ff1690565b6001600160a01b03811660009081526101cb60209081526040918290208054835181840281018401909452808452606093928301828280156108bb57602002820191906000526020600020905b8154815260200190600101908083116114f55750505050509050919050565b336001600160a01b038316141561157f5760405162461bcd60e51b815260206004820152602960248201527f455243313135353a2073657474696e6720617070726f76616c20737461747573604482015268103337b91039b2b63360b91b60648201526084016107f3565b33600081815260ca602090815260408083206001600160a01b03871680855290835292819020805460ff191686151590811790915590519081529192917f17307eab39ab6107e8899845ad3d59bd9653f200f220920489ca2b5937696c3191015b60405180910390a35050565b60006115f93384846126c7565b50600192915050565b61161a6000805160206157af8339815191523361147d565b6116365760405162461bcd60e51b81526004016107f390615458565b60005b6101cf548110156116e5576101d060006101cf838154811061166b57634e487b7160e01b600052603260045260246000fd5b60009182526020808320909101546001600160a01b031683528201929092526040019020805460ff191690556101cf8054829081106116ba57634e487b7160e01b600052603260045260246000fd5b600091825260209091200180546001600160a01b0319169055806116dd81615666565b915050611639565b506116ee61324f565b610d1b6101ca805460ff19166001179055565b61170e83306104696108d8565b50600160008281526101cc60205260409020541061173e5760405162461bcd60e51b81526004016107f390615245565b61174881836111ec565b6101cd805490600061175983615666565b9190505550505050565b60008181526097602052604081206107bb906132ff565b610c718282613309565b61179133306104696108d8565b50600160008281526101cc6020526040902054106117c15760405162461bcd60e51b81526004016107f390615245565b6117cb81336111ec565b6101cd80549060006117dc83615666565b919050555050565b6117fc6000805160206157af8339815191523361147d565b6118185760405162461bcd60e51b81526004016107f390615458565b6101ce55565b836118345761182e868685610a11565b50611877565b6118778686868686868080601f01602080910402602001604051908101604052809392919081815260200183838082843760009201919091525061332f92505050565b505050505050565b6001600160a01b03831633148061189b575061189b8333610733565b6118b75760405162461bcd60e51b81526004016107f3906151fc565b610c30838383613497565b600054610100900460ff16806118db575060005460ff16155b6118f75760405162461bcd60e51b81526004016107f390615320565b600054610100900460ff16158015611919576000805461ffff19166101011790555b611922826135a4565b8015610d5b576000805461ff00191690555050565b60006001600160a01b0383166119a35760405162461bcd60e51b815260206004820152602b60248201527f455243313135353a2062616c616e636520717565727920666f7220746865207a60448201526a65726f206164647265737360a81b60648201526084016107f3565b50600090815260c9602090815260408083206001600160a01b03949094168352929052205490565b60006107bb82613645565b8051610d5b9060cb9060208401906147b7565b6000670de0b6b3a7640000821015611a0057600080fd5b816001811461212c57600a811461213d576064811461214e576103e8811461215f57612710811461217057620186a0811461218157620f42408114612192576298968081146121a3576305f5e10081146121b457633b9aca0081146121c5576402540be40081146121d65764174876e80081146121e75764e8d4a5100081146121f8576509184e72a000811461220957655af3107a4000811461221a5766038d7ea4c68000811461222b57662386f26fc10000811461223c5767016345785d8a0000811461224d57670de0b6b3a7640000811461225e57678ac7230489e8000081146122675768056bc75e2d63100000811461227757683635c9adc5dea0000081146122875769021e19e0c9bab240000081146122975769152d02c7e14af680000081146122a75769d3c21bcecceda100000081146122b7576a084595161401484a00000081146122c7576a52b7d2dcc80cd2e400000081146122d7576b033b2e3c9fd0803ce800000081146122e7576b204fce5e3e2502611000000081146122f7576c01431e0fae6d7217caa00000008114612307576c0c9f2c9cd04674edea400000008114612317576c7e37be2022c0914b26800000008114612327576d04ee2d6d415b85acef81000000008114612337576d314dc6448d9338c15b0a000000008114612347576e01ed09bead87c0378d8e64000000008114612357576e13426172c74d822b878fe8000000008114612367576ec097ce7bc90715b34b9f10000000008114612377576f0785ee10d5da46d900f436a0000000008114612387576f4b3b4ca85a86c47a098a2240000000008114612398577002f050fe938943acc45f6556800000000081146123a957701d6329f1c35ca4bfabb9f561000000000081146123ba57710125dfa371a19e6f7cb54395ca000000000081146123cb57710b7abc627050305adf14a3d9e4000000000081146123dc577172cb5bd86321e38cb6ce6682e8000000000081146123ed5772047bf19673df52e37f2410011d10000000000081146123fe57722cd76fe086b93ce2f768a00b22a00000000000811461240f577301c06a5ec5433c60ddaa16406f5a40000000000081146124205773118427b3b4a05bc8a8a4de84598680000000000081146124315773af298d050e4395d69670b12b7f410000000000008114612442577406d79f82328ea3da61e066ebb2f88a00000000000081146124535774446c3b15f9926687d2c40534fdb5640000000000008114612464577502ac3a4edbbfb8014e3ba83411e915e8000000000000811461247557751aba4714957d300d0e549208b31adb1000000000000081146124865776010b46c6cdd6e3e0828f4db456ff0c8ea0000000000000811461249757760a70c3c40a64e6c51999090b65f67d924000000000000081146124a857766867a5a867f103b2fffa5a71fba0e7b68000000000000081146124b9577704140c78940f6a24fdffc78873d4490d210000000000000081146124ca577728c87cb5c89a2571ebfdcb54864ada834a0000000000000081146124db57780197d4df19d605767337e9f14d3eec8920e40000000000000081146124ec57780fee50b7025c36a0802f236d04753d5b48e80000000000000081146124fd57789f4f2726179a224501d762422c946590d91000000000000000811461250e5779063917877cec0556b21269d695bdcbf7a87aa000000000000000811461251f57793e3aeb4ae1383562f4b82261d969f7ac94ca40000000000000008114612530577a026e4d30eccc3215dd8f3157d27e23acbdcfe680000000000000008114612541577a184f03e93ff9f4daa797ed6e38ed64bf6a1f0100000000000000008114612552577af316271c7fc3908a8bef464e3945ef7a25360a00000000000000008114612563577b097edd871cfda3a5697758bf0e3cbb5ac5741c6400000000000000008114612574577b5ef4a74721e864761ea977768e5f518bb6891be800000000000000008114612585577c03b58e88c75313ec9d329eaaa18fb92f75215b171000000000000000008114612596577c25179157c93ec73e23fa32aa4f9d3bda934d8ee6a0000000000000000081146125a7577d0172ebad6ddc73c86d67c5faa71c245689c107950240000000000000000081146125b8577d0e7d34c64a9c85d4460dbbca87196b61618a4bd21680000000000000000081146125c9577d90e40fbeea1d3a4abc8955e946fe31cdcf66f634e100000000000000000081146125da577e05a8e89d75252446eb5d5d5b1cc5edf20a1a059e10ca00000000000000000081146125eb577e3899162693736ac531a5a58f1fbb4b746504382ca7e400000000000000000081146125fc577546bf5bb0385045767e0f0ef2e7aa1e517e454637d1dd604b1b811461260d577f161bcca7119915b50764b4abe86529797775a5f1719510000000000000000000811461261e577fdd15fe86affad91249ef0eb713f39ebeaa987b6e6fd2a0000000000000000000811461262f57600019915061263c565b67f9ccd8a1c507ffff19915061263c565b67ebec21ee1da3ffff19915061263c565b67de0b6b3a763fffff19915061263c565b67d02ab486cedbffff19915061263c565b67c249fdd32777ffff19915061263c565b67b469471f8013ffff19915061263c565b67a688906bd8afffff19915061263c565b6798a7d9b8314bffff19915061263c565b678ac7230489e7ffff19915061263c565b677ce66c50e283ffff19915061263c565b676f05b59d3b1fffff19915061263c565b676124fee993bbffff19915061263c565b6753444835ec57ffff19915061263c565b674563918244f3ffff19915061263c565b673782dace9d8fffff19915061263c565b6729a2241af62bffff19915061263c565b671bc16d674ec7ffff19915061263c565b670de0b6b3a763ffff19915061263c565b6000915061263c565b670de0b6b3a7640000915061263c565b671bc16d674ec80000915061263c565b6729a2241af62c0000915061263c565b673782dace9d900000915061263c565b674563918244f40000915061263c565b6753444835ec580000915061263c565b676124fee993bc0000915061263c565b676f05b59d3b200000915061263c565b677ce66c50e2840000915061263c565b678ac7230489e80000915061263c565b6798a7d9b8314c0000915061263c565b67a688906bd8b00000915061263c565b67b469471f80140000915061263c565b67c249fdd327780000915061263c565b67d02ab486cedc0000915061263c565b67de0b6b3a76400000915061263c565b67ebec21ee1da40000915061263c565b67f9ccd8a1c5080000915061263c565b680107ad8f556c6c0000915061263c565b6801158e460913d00000915061263c565b6801236efcbcbb340000915061263c565b6801314fb37062980000915061263c565b68013f306a2409fc0000915061263c565b68014d1120d7b1600000915061263c565b68015af1d78b58c40000915061263c565b680168d28e3f00280000915061263c565b680176b344f2a78c0000915061263c565b68018493fba64ef00000915061263c565b68019274b259f6540000915061263c565b6801a055690d9db80000915061263c565b6801ae361fc1451c0000915061263c565b6801bc16d674ec800000915061263c565b6801c9f78d2893e40000915061263c565b6801d7d843dc3b480000915061263c565b6801e5b8fa8fe2ac0000915061263c565b6801f399b1438a100000915061263c565b6802017a67f731740000915061263c565b68020f5b1eaad8d80000915061263c565b68021d3bd55e803c0000915061263c565b68022b1c8c1227a00000915061263c565b680238fd42c5cf040000915061263c565b680246ddf97976680000915061263c565b680254beb02d1dcc0000915061263c565b6802629f66e0c5300000915061263c565b680270801d946c940000915061263c565b68027e60d44813f80000915061263c565b68028c418afbbb5c0000915061263c565b68029a2241af62c00000915061263c565b6802a802f8630a240000915061263c565b6802b5e3af16b1880000915061263c565b6802c3c465ca58ec0000915061263c565b6802d1a51c7e00500000915061263c565b6802df85d331a7b40000915061263c565b6802ed6689e54f180000915061263c565b6802fb474098f67c0000915061263c565b68030927f74c9de00000915061263c565b68031708ae0045440000915061263c565b680324e964b3eca80000915061263c565b680332ca1b67940c000091505b506000198114156126825767049c2f99a683dfea670de0b6b3a764000061266284613685565b028161267e57634e487b7160e01b600052601260045260246000fd5b0490505b919050565b61269f6000805160206157af8339815191523361147d565b6126bb5760405162461bcd60e51b81526004016107f3906153b1565b61117a8484848461371e565b6001600160a01b03831661272b5760405162461bcd60e51b815260206004820152602560248201527f45524332303a207472616e736665722066726f6d20746865207a65726f206164604482015264647265737360d81b60648201526084016107f3565b6001600160a01b03821661278d5760405162461bcd60e51b815260206004820152602360248201527f45524332303a207472616e7366657220746f20746865207a65726f206164647260448201526265737360e81b60648201526084016107f3565b600081116127ef5760405162461bcd60e51b815260206004820152602960248201527f5472616e7366657220616d6f756e74206d7573742062652067726561746572206044820152687468616e207a65726f60b81b60648201526084016107f3565b6127fa83838361389c565b600080600080600061280b86612e49565b6001600160a01b038d1660009081526101c360205260409020549499509297509095509350915061283c90866138a6565b6001600160a01b03808a1660009081526101c36020526040808220939093559089168152205461286c90856138b2565b6001600160a01b03881660009081526101c3602052604090205561289083826138be565b866001600160a01b0316886001600160a01b03167fddf252ad1be2c89b69c2b068fc378daa952ba7f163c4a11628f55a4df523b3ef846040516128d591815260200190565b60405180910390a35050505050505050565b60008060006128fb6101c5546101c4549091565b90925090506112c382825b6000610a5a8284615572565b81518351146129335760405162461bcd60e51b81526004016107f3906154ae565b6001600160a01b0384166129595760405162461bcd60e51b81526004016107f390615289565b6001600160a01b03851633148061297557506129758533610733565b6129915760405162461bcd60e51b81526004016107f3906152ce565b336129a08187878787876138e6565b60005b8451811015612af05760008582815181106129ce57634e487b7160e01b600052603260045260246000fd5b6020026020010151905060008583815181106129fa57634e487b7160e01b600052603260045260246000fd5b602090810291909101810151600084815260c9835260408082206001600160a01b038e168352909352919091205490915081811015612a4b5760405162461bcd60e51b81526004016107f39061540e565b612a5582826155a5565b60c9600085815260200190815260200160002060008c6001600160a01b03166001600160a01b03168152602001908152602001600020819055508160c9600085815260200190815260200160002060008b6001600160a01b03166001600160a01b031681526020019081526020016000206000828254612ad5919061555a565b9250508190555050505080612ae990615666565b90506129a3565b50846001600160a01b0316866001600160a01b0316826001600160a01b03167f4a39dc06d4c0dbc64b70af90fd698a233a518aa5d07e595d983b8c0526c8f7fb8787604051612b4092919061512f565b60405180910390a46118778187878787876138f4565b600082815260656020526040902060010154612b728133613a5f565b610c308383613ac3565b6000610a5a836001600160a01b038416613b49565b6001600160a01b0381163314612c015760405162461bcd60e51b815260206004820152602f60248201527f416363657373436f6e74726f6c3a2063616e206f6e6c792072656e6f756e636560448201526e103937b632b9903337b91039b2b63360891b60648201526084016107f3565b610d5b8282613b98565b6000610a5a836001600160a01b038416613bff565b61012d5460ff16612c6a5760405162461bcd60e51b815260206004820152601460248201527314185d5cd8589b194e881b9bdd081c185d5cd95960621b60448201526064016107f3565b61012d805460ff191690557f5db9ee0a495bf2e6ff9c91a7834c1ba4fdd244a5e8aa4e537bd38aeae4b073aa335b6040516001600160a01b03909116815260200160405180910390a1565b6001600160a01b038216612d0b5760405162461bcd60e51b815260206004820152601f60248201527f45524332303a206d696e7420746f20746865207a65726f20616464726573730060448201526064016107f3565b612d176000838361389c565b806101c46000828254612d2a919061555a565b90915550506101c454612d4c90612d42908390612906565b6101c55490613d16565b6101c56000828254612d5e919061555a565b90915550506001600160a01b03821660009081526101c3602052604081208054839290612d8c90849061555a565b90915550506040518181526001600160a01b038316906000907fddf252ad1be2c89b69c2b068fc378daa952ba7f163c4a11628f55a4df523b3ef906020016115e0565b336000612ddb83612e49565b505050506001600160a01b03831660009081526101c36020526040902054909150612e0690826138a6565b6001600160a01b03831660009081526101c360205260409020556101c554612e2e90826138a6565b6101c5556101c654612e4090846138b2565b6101c655505050565b6000806000806000806000612e5d88613d22565b915091506000612e6b6128e7565b90506000806000612e7d8c8686613d4a565b919e909d50909b509599509397509395505050505050565b6000610a5a8383613d86565b6000610a5a83670de0b6b3a764000084613e31565b6001600160a01b038316612edc5760405162461bcd60e51b81526004016107f39061536e565b8051825114612efd5760405162461bcd60e51b81526004016107f3906154ae565b6000339050612f20818560008686604051806020016040528060008152506138e6565b60005b8351811015613011576000848281518110612f4e57634e487b7160e01b600052603260045260246000fd5b602002602001015190506000848381518110612f7a57634e487b7160e01b600052603260045260246000fd5b602090810291909101810151600084815260c9835260408082206001600160a01b038c168352909352919091205490915081811015612fcb5760405162461bcd60e51b81526004016107f3906151b8565b612fd582826155a5565b600093845260c9602090815260408086206001600160a01b038c168752909152909320929092555081905061300981615666565b915050612f23565b5060006001600160a01b0316846001600160a01b0316826001600160a01b03167f4a39dc06d4c0dbc64b70af90fd698a233a518aa5d07e595d983b8c0526c8f7fb868660405161306292919061512f565b60405180910390a450505050565b6001600160a01b03811660009081526101c360205260408120546107bb90610a61565b6130ab6000805160206157af8339815191523361147d565b6130c75760405162461bcd60e51b81526004016107f3906153b1565b61117a84848484613ee0565b600054610100900460ff16806130ec575060005460ff16155b6131085760405162461bcd60e51b81526004016107f390615320565b600054610100900460ff1615801561312a576000805461ffff19166101011790555b662386f26fc100006101c481905561314490600019615681565b613150906000196155a5565b6101c58190553360008181526101c360209081526040808320949094559251662386f26fc100008152919290917fddf252ad1be2c89b69c2b068fc378daa952ba7f163c4a11628f55a4df523b3ef910160405180910390a38015610805576000805461ff001916905550565b610c188282613fa9565b61012d5460ff161561320d5760405162461bcd60e51b815260206004820152601060248201526f14185d5cd8589b194e881c185d5cd95960821b60448201526064016107f3565b61012d805460ff191660011790557f62e78cea01bee320cd4e420270b5ea74000d11b0c9f74754ebdbfc544b05a258612c983390565b6000610a5a8383613fb3565b6101ca805460ff1916905560005b6101c854811015610805576132b26101c8828154811061328d57634e487b7160e01b600052603260045260246000fd5b60009182526020808320909101546001600160a01b031682526101c790526040812055565b6101c881815481106132d457634e487b7160e01b600052603260045260246000fd5b600091825260209091200180546001600160a01b0319169055806132f781615666565b91505061325d565b60006107bb825490565b6000828152606560205260409020600101546133258133613a5f565b610c308383613b98565b6001600160a01b0384166133555760405162461bcd60e51b81526004016107f390615289565b6001600160a01b03851633148061337157506133718533610733565b61338d5760405162461bcd60e51b81526004016107f3906151fc565b336133ac81878761339d88614047565b6133a688614047565b876138e6565b600084815260c9602090815260408083206001600160a01b038a168452909152902054838110156133ef5760405162461bcd60e51b81526004016107f39061540e565b6133f984826155a5565b600086815260c9602090815260408083206001600160a01b038c8116855292528083209390935588168152908120805486929061343790849061555a565b909155505060408051868152602081018690526001600160a01b03808916928a821692918616917fc3d58168c5ae7397731d063d5bbf3d657854427343f4c083240f7aacaa2d0f62910160405180910390a4610a088288888888886140a0565b6001600160a01b0383166134bd5760405162461bcd60e51b81526004016107f39061536e565b336134ec818560006134ce87614047565b6134d787614047565b604051806020016040528060008152506138e6565b600083815260c9602090815260408083206001600160a01b03881684529091529020548281101561352f5760405162461bcd60e51b81526004016107f3906151b8565b61353983826155a5565b600085815260c9602090815260408083206001600160a01b038a811680865291845282852095909555815189815292830188905292938616917fc3d58168c5ae7397731d063d5bbf3d657854427343f4c083240f7aacaa2d0f62910160405180910390a45050505050565b600054610100900460ff16806135bd575060005460ff16155b6135d95760405162461bcd60e51b81526004016107f390615320565b600054610100900460ff161580156135fb576000805461ffff19166101011790555b61360361416a565b61360b61416a565b61361361416a565b61361b61416a565b613624826141d4565b61362c61416a565b613634614234565b61363c61416a565b611922826142aa565b60006001600160e01b03198216636cdb3d1360e11b148061367657506001600160e01b031982166303a24d0760e21b145b806107bb57506107bb8261433c565b6000670de0b6b3a764000082101561369c57600080fd5b60006136b1670de0b6b3a76400008404614361565b670de0b6b3a7640000808202935090915083821c908114156136d4575050919050565b6706f05b59d3b200005b801561371657670de0b6b3a7640000828002049150671bc16d674ec80000821061370e579283019260019190911c905b60011c6136de565b505050919050565b6001600160a01b0384166137445760405162461bcd60e51b81526004016107f3906154f6565b81518351146137655760405162461bcd60e51b81526004016107f3906154ae565b33613775816000878787876138e6565b60005b845181101561382d578381815181106137a157634e487b7160e01b600052603260045260246000fd5b602002602001015160c960008784815181106137cd57634e487b7160e01b600052603260045260246000fd5b602002602001015181526020019081526020016000206000886001600160a01b03166001600160a01b031681526020019081526020016000206000828254613815919061555a565b9091555081905061382581615666565b915050613778565b50846001600160a01b031660006001600160a01b0316826001600160a01b03167f4a39dc06d4c0dbc64b70af90fd698a233a518aa5d07e595d983b8c0526c8f7fb878760405161387e92919061512f565b60405180910390a4613895816000878787876138f4565b5050505050565b610c308383614445565b6000610a5a82846155a5565b6000610a5a828461555a565b6101c5546138cc90836138a6565b6101c5556101c6546138de90826138b2565b6101c6555050565b611877868686868686614499565b6001600160a01b0384163b156118775760405163bc197c8160e01b81526001600160a01b0385169063bc197c8190613938908990899088908890889060040161502c565b602060405180830381600087803b15801561395257600080fd5b505af1925050508015613982575060408051601f3d908101601f1916820190925261397f91810190614ece565b60015b613a2f5761398e6156d7565b806308c379a014156139c857506139a36156ef565b806139ae57506139ca565b8060405162461bcd60e51b81526004016107f3919061515d565b505b60405162461bcd60e51b815260206004820152603460248201527f455243313135353a207472616e7366657220746f206e6f6e20455243313135356044820152732932b1b2b4bb32b91034b6b83632b6b2b73a32b960611b60648201526084016107f3565b6001600160e01b0319811663bc197c8160e01b14610a085760405162461bcd60e51b81526004016107f390615170565b613a69828261147d565b610d5b57613a81816001600160a01b03166014614502565b613a8c836020614502565b604051602001613a9d929190614fb7565b60408051601f198184030181529082905262461bcd60e51b82526107f39160040161515d565b613acd828261147d565b610d5b5760008281526065602090815260408083206001600160a01b03851684529091529020805460ff19166001179055613b053390565b6001600160a01b0316816001600160a01b0316837f2f8788117e7eff1d82e926ec794901d17c78024a50270940304540a733656f0d60405160405180910390a45050565b6000818152600183016020526040812054613b90575081546001818101845560008481526020808220909301849055845484825282860190935260409020919091556107bb565b5060006107bb565b613ba2828261147d565b15610d5b5760008281526065602090815260408083206001600160a01b0385168085529252808320805460ff1916905551339285917ff6391f5c32d9c69d2a47ea670b442974b53935d1edc7fd64eb21e047a839171b9190a45050565b60008181526001830160205260408120548015613d0c576000613c236001836155a5565b8554909150600090613c37906001906155a5565b90506000866000018281548110613c5e57634e487b7160e01b600052603260045260246000fd5b9060005260206000200154905080876000018481548110613c8f57634e487b7160e01b600052603260045260246000fd5b600091825260208083209091019290925582815260018901909152604090208490558654879080613cd057634e487b7160e01b600052603160045260246000fd5b600190038181906000526020600020016000905590558660010160008781526020019081526020016000206000905560019450505050506107bb565b60009150506107bb565b6000610a5a8284615586565b60008080613d31846064612906565b90506000613d3f85836138a6565b959194509092505050565b6000808080613d598786613d16565b90506000613d678787613d16565b90506000613d7583836138a6565b929992985090965090945050505050565b60008080600019848609848602925082811083820303915050600080670de0b6b3a76400008688099150506706f05b59d3b1ffff811182613dd95780670de0b6b3a76400008504019450505050506107bb565b82670de0b6b3a764000011613ded57600080fd5b620400008285030493909111909103600160ee1b02919091177faccb18165bd6fe31ae1cf318dc5b51eee0e1ba569b88cd74c1773b91fac106690201905092915050565b600080806000198587098587029250828110838203039150508060001415613e6b5760008411613e6057600080fd5b508290049050610a5a565b808411613e7757600080fd5b60008486880960026001871981018816978890046003810283188082028403028082028403028082028403028082028403028082028403029081029092039091026000889003889004909101858311909403939093029303949094049190911702949350505050565b6001600160a01b038416613f065760405162461bcd60e51b81526004016107f3906154f6565b33613f178160008761339d88614047565b600084815260c9602090815260408083206001600160a01b038916845290915281208054859290613f4990849061555a565b909155505060408051858152602081018590526001600160a01b0380881692600092918516917fc3d58168c5ae7397731d063d5bbf3d657854427343f4c083240f7aacaa2d0f62910160405180910390a4613895816000878787876140a0565b610d5b8282613ac3565b815460009082106140115760405162461bcd60e51b815260206004820152602260248201527f456e756d657261626c655365743a20696e646578206f7574206f6620626f756e604482015261647360f01b60648201526084016107f3565b82600001828154811061403457634e487b7160e01b600052603260045260246000fd5b9060005260206000200154905092915050565b6040805160018082528183019092526060916000919060208083019080368337019050509050828160008151811061408f57634e487b7160e01b600052603260045260246000fd5b602090810291909101015292915050565b6001600160a01b0384163b156118775760405163f23a6e6160e01b81526001600160a01b0385169063f23a6e61906140e4908990899088908890889060040161508a565b602060405180830381600087803b1580156140fe57600080fd5b505af192505050801561412e575060408051601f3d908101601f1916820190925261412b91810190614ece565b60015b61413a5761398e6156d7565b6001600160e01b0319811663f23a6e6160e01b14610a085760405162461bcd60e51b81526004016107f390615170565b600054610100900460ff1680614183575060005460ff16155b61419f5760405162461bcd60e51b81526004016107f390615320565b600054610100900460ff16158015611384576000805461ffff19166101011790558015610805576000805461ff001916905550565b600054610100900460ff16806141ed575060005460ff16155b6142095760405162461bcd60e51b81526004016107f390615320565b600054610100900460ff1615801561422b576000805461ffff19166101011790555b611922826119d6565b600054610100900460ff168061424d575060005460ff16155b6142695760405162461bcd60e51b81526004016107f390615320565b600054610100900460ff1615801561428b576000805461ffff19166101011790555b61012d805460ff191690558015610805576000805461ff001916905550565b600054610100900460ff16806142c3575060005460ff16155b6142df5760405162461bcd60e51b81526004016107f390615320565b600054610100900460ff16158015614301576000805461ffff19166101011790555b61430c6000336131bc565b6143246000805160206157af833981519152336131bc565b61192260008051602061578f833981519152336131bc565b60006001600160e01b03198216635a05180f60e01b14806107bb57506107bb826146e3565b6000600160801b821061438157608091821c9161437e908261555a565b90505b6801000000000000000082106143a457604091821c916143a1908261555a565b90505b64010000000082106143c357602091821c916143c0908261555a565b90505b6201000082106143e057601091821c916143dd908261555a565b90505b61010082106143fc57600891821c916143f9908261555a565b90505b6010821061441757600491821c91614414908261555a565b90505b6004821061443257600291821c9161442f908261555a565b90505b60028210612682576107bb60018261555a565b6101ca5460ff1615610d5b576001600160a01b0382166144705761446881614718565b610d5b6147a1565b6001600160a01b0381166144875761446882614718565b61449082614718565b610d5b81614718565b61012d5460ff16156118775760405162461bcd60e51b815260206004820152602c60248201527f455243313135355061757361626c653a20746f6b656e207472616e736665722060448201526b1dda1a5b19481c185d5cd95960a21b60648201526084016107f3565b60606000614511836002615586565b61451c90600261555a565b6001600160401b0381111561454157634e487b7160e01b600052604160045260246000fd5b6040519080825280601f01601f19166020018201604052801561456b576020820181803683370190505b509050600360fc1b8160008151811061459457634e487b7160e01b600052603260045260246000fd5b60200101906001600160f81b031916908160001a905350600f60fb1b816001815181106145d157634e487b7160e01b600052603260045260246000fd5b60200101906001600160f81b031916908160001a90535060006145f5846002615586565b61460090600161555a565b90505b6001811115614694576f181899199a1a9b1b9c1cb0b131b232b360811b85600f166010811061464257634e487b7160e01b600052603260045260246000fd5b1a60f81b82828151811061466657634e487b7160e01b600052603260045260246000fd5b60200101906001600160f81b031916908160001a90535060049490941c9361468d816155e8565b9050614603565b508315610a5a5760405162461bcd60e51b815260206004820181905260248201527f537472696e67733a20686578206c656e67746820696e73756666696369656e7460448201526064016107f3565b60006001600160e01b03198216637965db0b60e01b14806107bb57506301ffc9a760e01b6001600160e01b03198316146107bb565b6001600160a01b03811660009081526101c760205260409020546108055761473f8161114f565b6001600160a01b03821660008181526101c760205260408120929092556101c8805460018101825592527f8cdee82cb3ac6d59f1f417405a3eecf497b31f3d06d4c506f96deb67789f61e990910180546001600160a01b031916909117905550565b6101c954610d1b576147b16108c7565b6101c955565b8280546147c3906155ff565b90600052602060002090601f0160209004810192826147e5576000855561482b565b82601f106147fe57805160ff191683800117855561482b565b8280016001018555821561482b579182015b8281111561482b578251825591602001919060010190614810565b5061483792915061483b565b5090565b5b80821115614837576000815560010161483c565b60006001600160401b03831115614869576148696156c1565b604051614880601f8501601f19166020018261563a565b80915083815284848401111561489557600080fd5b83836020830137600060208583010152509392505050565b80356001600160a01b038116811461268257600080fd5b60008083601f8401126148d5578182fd5b5081356001600160401b038111156148eb578182fd5b6020830191508360208260051b850101111561490657600080fd5b9250929050565b600082601f83011261491d578081fd5b8135602061492a82615537565b604051614937828261563a565b8381528281019150858301600585901b87018401881015614956578586fd5b855b8581101561497457813584529284019290840190600101614958565b5090979650505050505050565b8035801515811461268257600080fd5b60008083601f8401126149a2578182fd5b5081356001600160401b038111156149b8578182fd5b60208301915083602082850101111561490657600080fd5b6000602082840312156149e1578081fd5b610a5a826148ad565b600080604083850312156149fc578081fd5b614a05836148ad565b9150614a13602084016148ad565b90509250929050565b60008060008060008060008060a0898b031215614a37578384fd5b614a40896148ad565b9750614a4e60208a016148ad565b965060408901356001600160401b0380821115614a69578586fd5b614a758c838d016148c4565b909850965060608b0135915080821115614a8d578586fd5b614a998c838d016148c4565b909650945060808b0135915080821115614ab1578384fd5b50614abe8b828c01614991565b999c989b5096995094979396929594505050565b600080600060608486031215614ae6578283fd5b614aef846148ad565b9250614afd602085016148ad565b9150604084013590509250925092565b60008060008060008060a08789031215614b25578182fd5b614b2e876148ad565b9550614b3c602088016148ad565b9450604087013593506060870135925060808701356001600160401b03811115614b64578283fd5b614b7089828a01614991565b979a9699509497509295939492505050565b60008060008060008060006080888a031215614b9c578081fd5b614ba5886148ad565b965060208801356001600160401b0380821115614bc0578283fd5b614bcc8b838c016148c4565b909850965060408a0135915080821115614be4578283fd5b614bf08b838c016148c4565b909650945060608a0135915080821115614c08578283fd5b50614c158a828b01614991565b989b979a50959850939692959293505050565b600080600060608486031215614c3c578081fd5b614c45846148ad565b925060208401356001600160401b0380821115614c60578283fd5b614c6c8783880161490d565b93506040860135915080821115614c81578283fd5b50614c8e8682870161490d565b9150509250925092565b60008060408385031215614caa578182fd5b614cb3836148ad565b9150614a1360208401614981565b60008060408385031215614cd3578182fd5b614cdc836148ad565b946020939093013593505050565b600080600060608486031215614cfe578081fd5b614d07846148ad565b95602085013595506040909401359392505050565b60008060008060808587031215614d31578182fd5b614d3a856148ad565b9350602085013592506040850135915060608501356001600160401b03811115614d62578182fd5b8501601f81018713614d72578182fd5b614d8187823560208401614850565b91505092959194509250565b60008060408385031215614d9f578182fd5b82356001600160401b0380821115614db5578384fd5b818501915085601f830112614dc8578384fd5b81356020614dd582615537565b604051614de2828261563a565b8381528281019150858301600585901b870184018b1015614e01578889fd5b8896505b84871015614e2a57614e16816148ad565b835260019690960195918301918301614e05565b5096505086013592505080821115614e40578283fd5b50614e4d8582860161490d565b9150509250929050565b600060208284031215614e68578081fd5b5035919050565b60008060408385031215614e81578182fd5b82359150614a13602084016148ad565b60008060408385031215614ea3578182fd5b50508035926020909101359150565b600060208284031215614ec3578081fd5b8135610a5a81615778565b600060208284031215614edf578081fd5b8151610a5a81615778565b600060208284031215614efb578081fd5b81356001600160401b03811115614f10578182fd5b8201601f81018413614f20578182fd5b61145d84823560208401614850565b60008060408385031215614f41578182fd5b82359150614a1360208401614981565b6000815180845260208085019450808401835b83811015614f8057815187529582019590820190600101614f64565b509495945050505050565b60008151808452614fa38160208601602086016155bc565b601f01601f19169290920160200192915050565b7f416363657373436f6e74726f6c3a206163636f756e7420000000000000000000815260008351614fef8160178501602088016155bc565b7001034b99036b4b9b9b4b733903937b6329607d1b60179184019182015283516150208160288401602088016155bc565b01602801949350505050565b6001600160a01b0386811682528516602082015260a06040820181905260009061505890830186614f51565b828103606084015261506a8186614f51565b9050828103608084015261507e8185614f8b565b98975050505050505050565b6001600160a01b03868116825285166020820152604081018490526060810183905260a0608082018190526000906150c490830184614f8b565b979650505050505050565b6020808252825182820181905260009190848201906040850190845b818110156151105783516001600160a01b0316835292840192918401916001016150eb565b50909695505050505050565b602081526000610a5a6020830184614f51565b6040815260006151426040830185614f51565b82810360208401526151548185614f51565b95945050505050565b602081526000610a5a6020830184614f8b565b60208082526028908201527f455243313135353a204552433131353552656365697665722072656a656374656040820152676420746f6b656e7360c01b606082015260800190565b60208082526024908201527f455243313135353a206275726e20616d6f756e7420657863656564732062616c604082015263616e636560e01b606082015260800190565b60208082526029908201527f455243313135353a2063616c6c6572206973206e6f74206f776e6572206e6f7260408201526808185c1c1c9bdd995960ba1b606082015260800190565b60208082526024908201527f536f72727920746869732073706563696520697320616c7265616479206f776e6040820152636564202160e01b606082015260800190565b60208082526025908201527f455243313135353a207472616e7366657220746f20746865207a65726f206164604082015264647265737360d81b606082015260800190565b60208082526032908201527f455243313135353a207472616e736665722063616c6c6572206973206e6f74206040820152711bdddb995c881b9bdc88185c1c1c9bdd995960721b606082015260800190565b6020808252602e908201527f496e697469616c697a61626c653a20636f6e747261637420697320616c72656160408201526d191e481a5b9a5d1a585b1a5e995960921b606082015260800190565b60208082526023908201527f455243313135353a206275726e2066726f6d20746865207a65726f206164647260408201526265737360e81b606082015260800190565b60208082526038908201527f455243313135355072657365744d696e7465725061757365723a206d7573742060408201527f68617665206d696e74657220726f6c6520746f206d696e740000000000000000606082015260800190565b6020808252602a908201527f455243313135353a20696e73756666696369656e742062616c616e636520666f60408201526939103a3930b739b332b960b11b606082015260800190565b60208082526036908201527f45524332305072657365744d696e7465725061757365723a206d7573742068616040820152751d99481b5a5b9d195c881c9bdb19481d1bc81b5a5b9d60521b606082015260800190565b60208082526028908201527f455243313135353a2069647320616e6420616d6f756e7473206c656e677468206040820152670dad2e6dac2e8c6d60c31b606082015260800190565b60208082526021908201527f455243313135353a206d696e7420746f20746865207a65726f206164647265736040820152607360f81b606082015260800190565b60006001600160401b03821115615550576155506156c1565b5060051b60200190565b6000821982111561556d5761556d615695565b500190565b600082615581576155816156ab565b500490565b60008160001904831182151516156155a0576155a0615695565b500290565b6000828210156155b7576155b7615695565b500390565b60005b838110156155d75781810151838201526020016155bf565b8381111561117a5750506000910152565b6000816155f7576155f7615695565b506000190190565b600181811c9082168061561357607f821691505b6020821081141561563457634e487b7160e01b600052602260045260246000fd5b50919050565b601f8201601f191681016001600160401b038111828210171561565f5761565f6156c1565b6040525050565b600060001982141561567a5761567a615695565b5060010190565b600082615690576156906156ab565b500690565b634e487b7160e01b600052601160045260246000fd5b634e487b7160e01b600052601260045260246000fd5b634e487b7160e01b600052604160045260246000fd5b600060033d11156156ec57600481823e5160e01c5b90565b600060443d10156156fd5790565b6040516003193d81016004833e81513d6001600160401b03816024840111818411171561572c57505050505090565b82850191508151818111156157445750505050505090565b843d870101602082850101111561575e5750505050505090565b61576d6020828601018761563a565b509095945050505050565b6001600160e01b03198116811461080557600080fdfe65d7a28e3265b37a6474929f336521b332c1681b933f6cb9f3376673440d862a9f2df0fed2c77648de5860a4cc508cd0818c85b8b8a1ab4ceeef8d981c8956a6a26469706673582212209eed5b7e664aee104c338ab19dd8f0d002883259a3f838f04b190f4d598919d564736f6c63430008040033",
    "sourcePath": "/home/benjamin/Bureau/creationNft/contracts/CreationToken.sol",
    "compiler": {
        "name": "solc",
        "version": "0.8.4+commit.c7e474f2"
    },
    "functionHashes": {
        "DEFAULT_ADMIN_ROLE()": "a217fddf",
        "LetBe()": "701f134c",
        "MINTER_ROLE()": "d5391393",
        "PAUSER_ROLE()": "e63ab1e9",
        "SNAPSHOTTER_ROLE()": "cb2db437",
        "_SpeciesSold()": "9b60884f",
        "_holderSpecies(address,uint256)": "307cf719",
        "_reward()": "1be0717f",
        "_rewardee(uint256)": "08bbcc59",
        "_speciesHolders(uint256,uint256)": "7de4adfb",
        "balanceOf(address)": "70a08231",
        "balanceOf(address,uint256)": "00fdd58e",
        "balanceOfAtSnapshot(address)": "8e5fdf17",
        "balanceOfBatch(address[],uint256[])": "4e1273f4",
        "burn(address,uint256,uint256)": "f5298aca",
        "burn(uint256)": "42966c68",
        "burnBatch(address,uint256[],uint256[])": "6b20c454",
        "buySpecie(address,address,uint256)": "c6899692",
        "buySpecie(uint256)": "d7e9ee56",
        "claimHolderReward()": "65700481",
        "getRoleAdmin(bytes32)": "248a9ca3",
        "getRoleMember(bytes32,uint256)": "9010d07c",
        "getRoleMemberCount(bytes32)": "ca15c873",
        "grantRole(bytes32,address)": "2f2ff15d",
        "hasRole(bytes32,address)": "91d14854",
        "holderSpecies(address)": "9f4f7fec",
        "initialize()": "8129fc1c",
        "initialize(string)": "f62d1888",
        "isApprovedForAll(address,address)": "e985e9c5",
        "maxSpecimen(uint256)": "2b7f5602",
        "mint(address,uint256)": "40c10f19",
        "mint(address,uint256,uint256,bytes)": "731133e9",
        "mintBatch(address,uint256[],uint256[],bytes)": "1f7fdffa",
        "mintSpecie(uint256,address)": "7a098fb2",
        "pause()": "8456cb59",
        "paused()": "5c975abb",
        "reflectionFromToken(uint256,bool)": "4549b039",
        "renounceRole(bytes32,address)": "36568abe",
        "revokeRole(bytes32,address)": "d547741f",
        "rewardHolders(uint256)": "e6bd7ed1",
        "safeBatchTransferFrom(address,address,uint256[],uint256[],bytes)": "2eb2c2d6",
        "safeTransferFrom(address,address,uint256,uint256,bytes)": "f242432a",
        "setApprovalForAll(address,bool)": "a22cb465",
        "setURI(string)": "02fe5305",
        "specieHolders(uint256)": "7346e50a",
        "speciePrice()": "1f4cb149",
        "supportsInterface(bytes4)": "01ffc9a7",
        "takeSnapshot()": "b3d3d37e",
        "tokenFromReflection(uint256)": "2d838119",
        "totalFees()": "13114a9d",
        "totalSupply()": "18160ddd",
        "totalSupplyAtSnapShot()": "7df01e76",
        "transfer(address,uint256)": "a9059cbb",
        "transferFrom(address,address,uint256)": "23b872dd",
        "unpause()": "3f4ba83a",
        "uri(uint256)": "0e89341c"
    },
    "gasEstimates": {
        "creation": {
            "codeDepositCost": "4506400",
            "executionCost": "26069",
            "totalCost": "4532469"
        },
        "external": {
            "DEFAULT_ADMIN_ROLE()": "295",
            "LetBe()": "295",
            "MINTER_ROLE()": "infinite",
            "PAUSER_ROLE()": "infinite",
            "SNAPSHOTTER_ROLE()": "infinite",
            "_SpeciesSold()": "1051",
            "_holderSpecies(address,uint256)": "2246",
            "_reward()": "1053",
            "_rewardee(uint256)": "2083",
            "_speciesHolders(uint256,uint256)": "2173",
            "balanceOf(address)": "infinite",
            "balanceOf(address,uint256)": "infinite",
            "balanceOfAtSnapshot(address)": "infinite",
            "balanceOfBatch(address[],uint256[])": "infinite",
            "burn(address,uint256,uint256)": "infinite",
            "burn(uint256)": "infinite",
            "burnBatch(address,uint256[],uint256[])": "infinite",
            "buySpecie(address,address,uint256)": "infinite",
            "buySpecie(uint256)": "infinite",
            "claimHolderReward()": "infinite",
            "getRoleAdmin(bytes32)": "1223",
            "getRoleMember(bytes32,uint256)": "infinite",
            "getRoleMemberCount(bytes32)": "infinite",
            "grantRole(bytes32,address)": "infinite",
            "hasRole(bytes32,address)": "1477",
            "holderSpecies(address)": "infinite",
            "initialize()": "infinite",
            "initialize(string)": "infinite",
            "isApprovedForAll(address,address)": "infinite",
            "maxSpecimen(uint256)": "375",
            "mint(address,uint256)": "infinite",
            "mint(address,uint256,uint256,bytes)": "infinite",
            "mintBatch(address,uint256[],uint256[],bytes)": "infinite",
            "mintSpecie(uint256,address)": "infinite",
            "pause()": "infinite",
            "paused()": "1116",
            "reflectionFromToken(uint256,bool)": "infinite",
            "renounceRole(bytes32,address)": "infinite",
            "revokeRole(bytes32,address)": "infinite",
            "rewardHolders(uint256)": "infinite",
            "safeBatchTransferFrom(address,address,uint256[],uint256[],bytes)": "infinite",
            "safeTransferFrom(address,address,uint256,uint256,bytes)": "infinite",
            "setApprovalForAll(address,bool)": "infinite",
            "setURI(string)": "infinite",
            "specieHolders(uint256)": "infinite",
            "speciePrice()": "infinite",
            "supportsInterface(bytes4)": "infinite",
            "takeSnapshot()": "infinite",
            "tokenFromReflection(uint256)": "infinite",
            "totalFees()": "1094",
            "totalSupply()": "1154",
            "totalSupplyAtSnapShot()": "2019",
            "transfer(address,uint256)": "infinite",
            "transferFrom(address,address,uint256)": "infinite",
            "unpause()": "infinite",
            "uri(uint256)": "infinite"
        },
        "internal": {
            "_beforeTokenTransfer(address,address,uint256)": "infinite"
        }
    }
}